{
    "abi": [
        {
            "type": "constructor",
            "inputs": [],
            "stateMutability": "nonpayable"
        },
        {
            "type": "function",
            "name": "approve",
            "inputs": [
                {
                    "name": "to",
                    "type": "address",
                    "internalType": "address"
                },
                {
                    "name": "tokenId",
                    "type": "uint256",
                    "internalType": "uint256"
                }
            ],
            "outputs": [],
            "stateMutability": "nonpayable"
        },
        {
            "type": "function",
            "name": "balanceOf",
            "inputs": [
                {
                    "name": "owner",
                    "type": "address",
                    "internalType": "address"
                }
            ],
            "outputs": [
                {
                    "name": "",
                    "type": "uint256",
                    "internalType": "uint256"
                }
            ],
            "stateMutability": "view"
        },
        {
            "type": "function",
            "name": "getApproved",
            "inputs": [
                {
                    "name": "tokenId",
                    "type": "uint256",
                    "internalType": "uint256"
                }
            ],
            "outputs": [
                {
                    "name": "",
                    "type": "address",
                    "internalType": "address"
                }
            ],
            "stateMutability": "view"
        },
        {
            "type": "function",
            "name": "isApprovedForAll",
            "inputs": [
                {
                    "name": "owner",
                    "type": "address",
                    "internalType": "address"
                },
                {
                    "name": "operator",
                    "type": "address",
                    "internalType": "address"
                }
            ],
            "outputs": [
                {
                    "name": "",
                    "type": "bool",
                    "internalType": "bool"
                }
            ],
            "stateMutability": "view"
        },
        {
            "type": "function",
            "name": "mint",
            "inputs": [],
            "outputs": [],
            "stateMutability": "payable"
        },
        {
            "type": "function",
            "name": "name",
            "inputs": [],
            "outputs": [
                {
                    "name": "",
                    "type": "string",
                    "internalType": "string"
                }
            ],
            "stateMutability": "view"
        },
        {
            "type": "function",
            "name": "ownerOf",
            "inputs": [
                {
                    "name": "tokenId",
                    "type": "uint256",
                    "internalType": "uint256"
                }
            ],
            "outputs": [
                {
                    "name": "",
                    "type": "address",
                    "internalType": "address"
                }
            ],
            "stateMutability": "view"
        },
        {
            "type": "function",
            "name": "safeTransferFrom",
            "inputs": [
                {
                    "name": "from",
                    "type": "address",
                    "internalType": "address"
                },
                {
                    "name": "to",
                    "type": "address",
                    "internalType": "address"
                },
                {
                    "name": "tokenId",
                    "type": "uint256",
                    "internalType": "uint256"
                }
            ],
            "outputs": [],
            "stateMutability": "nonpayable"
        },
        {
            "type": "function",
            "name": "safeTransferFrom",
            "inputs": [
                {
                    "name": "from",
                    "type": "address",
                    "internalType": "address"
                },
                {
                    "name": "to",
                    "type": "address",
                    "internalType": "address"
                },
                {
                    "name": "tokenId",
                    "type": "uint256",
                    "internalType": "uint256"
                },
                {
                    "name": "data",
                    "type": "bytes",
                    "internalType": "bytes"
                }
            ],
            "outputs": [],
            "stateMutability": "nonpayable"
        },
        {
            "type": "function",
            "name": "setApprovalForAll",
            "inputs": [
                {
                    "name": "operator",
                    "type": "address",
                    "internalType": "address"
                },
                {
                    "name": "approved",
                    "type": "bool",
                    "internalType": "bool"
                }
            ],
            "outputs": [],
            "stateMutability": "nonpayable"
        },
        {
            "type": "function",
            "name": "setMintPrice",
            "inputs": [
                {
                    "name": "mintPrice",
                    "type": "uint256",
                    "internalType": "uint256"
                }
            ],
            "outputs": [],
            "stateMutability": "nonpayable"
        },
        {
            "type": "function",
            "name": "setNftUri",
            "inputs": [
                {
                    "name": "_nftUri",
                    "type": "string",
                    "internalType": "string"
                }
            ],
            "outputs": [],
            "stateMutability": "nonpayable"
        },
        {
            "type": "function",
            "name": "supportsInterface",
            "inputs": [
                {
                    "name": "interfaceId",
                    "type": "bytes4",
                    "internalType": "bytes4"
                }
            ],
            "outputs": [
                {
                    "name": "",
                    "type": "bool",
                    "internalType": "bool"
                }
            ],
            "stateMutability": "view"
        },
        {
            "type": "function",
            "name": "symbol",
            "inputs": [],
            "outputs": [
                {
                    "name": "",
                    "type": "string",
                    "internalType": "string"
                }
            ],
            "stateMutability": "view"
        },
        {
            "type": "function",
            "name": "tokenURI",
            "inputs": [
                {
                    "name": "tokenId",
                    "type": "uint256",
                    "internalType": "uint256"
                }
            ],
            "outputs": [
                {
                    "name": "",
                    "type": "string",
                    "internalType": "string"
                }
            ],
            "stateMutability": "view"
        },
        {
            "type": "function",
            "name": "transferFrom",
            "inputs": [
                {
                    "name": "from",
                    "type": "address",
                    "internalType": "address"
                },
                {
                    "name": "to",
                    "type": "address",
                    "internalType": "address"
                },
                {
                    "name": "tokenId",
                    "type": "uint256",
                    "internalType": "uint256"
                }
            ],
            "outputs": [],
            "stateMutability": "nonpayable"
        },
        {
            "type": "event",
            "name": "Approval",
            "inputs": [
                {
                    "name": "owner",
                    "type": "address",
                    "indexed": true,
                    "internalType": "address"
                },
                {
                    "name": "approved",
                    "type": "address",
                    "indexed": true,
                    "internalType": "address"
                },
                {
                    "name": "tokenId",
                    "type": "uint256",
                    "indexed": true,
                    "internalType": "uint256"
                }
            ],
            "anonymous": false
        },
        {
            "type": "event",
            "name": "ApprovalForAll",
            "inputs": [
                {
                    "name": "owner",
                    "type": "address",
                    "indexed": true,
                    "internalType": "address"
                },
                {
                    "name": "operator",
                    "type": "address",
                    "indexed": true,
                    "internalType": "address"
                },
                {
                    "name": "approved",
                    "type": "bool",
                    "indexed": false,
                    "internalType": "bool"
                }
            ],
            "anonymous": false
        },
        {
            "type": "event",
            "name": "BatchMetadataUpdate",
            "inputs": [
                {
                    "name": "_fromTokenId",
                    "type": "uint256",
                    "indexed": false,
                    "internalType": "uint256"
                },
                {
                    "name": "_toTokenId",
                    "type": "uint256",
                    "indexed": false,
                    "internalType": "uint256"
                }
            ],
            "anonymous": false
        },
        {
            "type": "event",
            "name": "MetadataUpdate",
            "inputs": [
                {
                    "name": "_tokenId",
                    "type": "uint256",
                    "indexed": false,
                    "internalType": "uint256"
                }
            ],
            "anonymous": false
        },
        {
            "type": "event",
            "name": "Transfer",
            "inputs": [
                {
                    "name": "from",
                    "type": "address",
                    "indexed": true,
                    "internalType": "address"
                },
                {
                    "name": "to",
                    "type": "address",
                    "indexed": true,
                    "internalType": "address"
                },
                {
                    "name": "tokenId",
                    "type": "uint256",
                    "indexed": true,
                    "internalType": "uint256"
                }
            ],
            "anonymous": false
        },
        {
            "type": "error",
            "name": "ERC721IncorrectOwner",
            "inputs": [
                {
                    "name": "sender",
                    "type": "address",
                    "internalType": "address"
                },
                {
                    "name": "tokenId",
                    "type": "uint256",
                    "internalType": "uint256"
                },
                {
                    "name": "owner",
                    "type": "address",
                    "internalType": "address"
                }
            ]
        },
        {
            "type": "error",
            "name": "ERC721InsufficientApproval",
            "inputs": [
                {
                    "name": "operator",
                    "type": "address",
                    "internalType": "address"
                },
                {
                    "name": "tokenId",
                    "type": "uint256",
                    "internalType": "uint256"
                }
            ]
        },
        {
            "type": "error",
            "name": "ERC721InvalidApprover",
            "inputs": [
                {
                    "name": "approver",
                    "type": "address",
                    "internalType": "address"
                }
            ]
        },
        {
            "type": "error",
            "name": "ERC721InvalidOperator",
            "inputs": [
                {
                    "name": "operator",
                    "type": "address",
                    "internalType": "address"
                }
            ]
        },
        {
            "type": "error",
            "name": "ERC721InvalidOwner",
            "inputs": [
                {
                    "name": "owner",
                    "type": "address",
                    "internalType": "address"
                }
            ]
        },
        {
            "type": "error",
            "name": "ERC721InvalidReceiver",
            "inputs": [
                {
                    "name": "receiver",
                    "type": "address",
                    "internalType": "address"
                }
            ]
        },
        {
            "type": "error",
            "name": "ERC721InvalidSender",
            "inputs": [
                {
                    "name": "sender",
                    "type": "address",
                    "internalType": "address"
                }
            ]
        },
        {
            "type": "error",
            "name": "ERC721NonexistentToken",
            "inputs": [
                {
                    "name": "tokenId",
                    "type": "uint256",
                    "internalType": "uint256"
                }
            ]
        }
    ],
    "bytecode": {
        "object": "0x608060405234801561001057600080fd5b506040518060400160405280600781526020016611dbdb1913919560ca1b8152506040518060400160405280600481526020016311d3d31160e21b815250816000908161005d9190610118565b50600161006a8282610118565b50506001600855506101d7565b634e487b7160e01b600052604160045260246000fd5b600181811c908216806100a157607f821691505b6020821081036100c157634e487b7160e01b600052602260045260246000fd5b50919050565b601f821115610113576000816000526020600020601f850160051c810160208610156100f05750805b601f850160051c820191505b8181101561010f578281556001016100fc565b5050505b505050565b81516001600160401b0381111561013157610131610077565b6101458161013f845461008d565b846100c7565b602080601f83116001811461017a57600084156101625750858301515b600019600386901b1c1916600185901b17855561010f565b600085815260208120601f198616915b828110156101a95788860151825594840194600190910190840161018a565b50858210156101c75787850151600019600388901b60f8161c191681555b5050505050600190811b01905550565b61129e806101e66000396000f3fe6080604052600436106100f35760003560e01c80636352211e1161008a578063b88d4fde11610059578063b88d4fde14610294578063c87b56dd146102b4578063e985e9c5146102d4578063f4a0a528146102f457600080fd5b80636352211e1461021157806370a082311461023157806395d89b411461025f578063a22cb4651461027457600080fd5b80631249c58b116100c65780631249c58b146101a957806323b872dd146101b15780632a751e42146101d157806342842e0e146101f157600080fd5b806301ffc9a7146100f857806306fdde031461012d578063081812fc1461014f578063095ea7b314610187575b600080fd5b34801561010457600080fd5b50610118610113366004610d68565b610314565b60405190151581526020015b60405180910390f35b34801561013957600080fd5b5061014261033f565b6040516101249190610dd5565b34801561015b57600080fd5b5061016f61016a366004610de8565b6103d1565b6040516001600160a01b039091168152602001610124565b34801561019357600080fd5b506101a76101a2366004610e1d565b6103fa565b005b6101a7610409565b3480156101bd57600080fd5b506101a76101cc366004610e47565b610478565b3480156101dd57600080fd5b506101a76101ec366004610f0f565b610503565b3480156101fd57600080fd5b506101a761020c366004610e47565b61050f565b34801561021d57600080fd5b5061016f61022c366004610de8565b61052f565b34801561023d57600080fd5b5061025161024c366004610f58565b61053a565b604051908152602001610124565b34801561026b57600080fd5b50610142610582565b34801561028057600080fd5b506101a761028f366004610f73565b610591565b3480156102a057600080fd5b506101a76102af366004610faf565b61059c565b3480156102c057600080fd5b506101426102cf366004610de8565b6105b3565b3480156102e057600080fd5b506101186102ef36600461102b565b61061b565b34801561030057600080fd5b506101a761030f366004610de8565b600a55565b60006001600160e01b03198216632483248360e11b1480610339575061033982610649565b92915050565b60606000805461034e9061105e565b80601f016020809104026020016040519081016040528092919081815260200182805461037a9061105e565b80156103c75780601f1061039c576101008083540402835291602001916103c7565b820191906000526020600020905b8154815290600101906020018083116103aa57829003601f168201915b5050505050905090565b60006103dc82610699565b506000828152600460205260409020546001600160a01b0316610339565b6104058282336106d2565b5050565b600a543410156104555760405162461bcd60e51b81526020600482015260126024820152714d696e74205072696365206973204c6f772160701b60448201526064015b60405180910390fd5b610461336008546106df565b6008805490600061047183611098565b9190505550565b6001600160a01b0382166104a257604051633250574960e11b81526000600482015260240161044c565b60006104af838333610744565b9050836001600160a01b0316816001600160a01b0316146104fd576040516364283d7b60e01b81526001600160a01b038086166004830152602482018490528216604482015260640161044c565b50505050565b6009610405828261110f565b61052a8383836040518060200160405280600081525061059c565b505050565b600061033982610699565b60006001600160a01b038216610566576040516322718ad960e21b81526000600482015260240161044c565b506001600160a01b031660009081526003602052604090205490565b60606001805461034e9061105e565b61040533838361083d565b6105a7848484610478565b6104fd848484846108dc565b60606105be82610699565b5060006105c9610a05565b905060008151116105e95760405180602001604052806000815250610614565b806105f384610a14565b6040516020016106049291906111cf565b6040516020818303038152906040525b9392505050565b6001600160a01b03918216600090815260056020908152604080832093909416825291909152205460ff1690565b60006001600160e01b031982166380ac58cd60e01b148061067a57506001600160e01b03198216635b5e139f60e01b145b8061033957506301ffc9a760e01b6001600160e01b0319831614610339565b6000818152600260205260408120546001600160a01b03168061033957604051637e27328960e01b81526004810184905260240161044c565b61052a8383836001610aa7565b6001600160a01b03821661070957604051633250574960e11b81526000600482015260240161044c565b600061071783836000610744565b90506001600160a01b0381161561052a576040516339e3563760e11b81526000600482015260240161044c565b6000828152600260205260408120546001600160a01b039081169083161561077157610771818486610bad565b6001600160a01b038116156107af5761078e600085600080610aa7565b6001600160a01b038116600090815260036020526040902080546000190190555b6001600160a01b038516156107de576001600160a01b0385166000908152600360205260409020805460010190555b60008481526002602052604080822080546001600160a01b0319166001600160a01b0389811691821790925591518793918516917fddf252ad1be2c89b69c2b068fc378daa952ba7f163c4a11628f55a4df523b3ef91a4949350505050565b6001600160a01b03821661086f57604051630b61174360e31b81526001600160a01b038316600482015260240161044c565b6001600160a01b03838116600081815260056020908152604080832094871680845294825291829020805460ff191686151590811790915591519182527f17307eab39ab6107e8899845ad3d59bd9653f200f220920489ca2b5937696c31910160405180910390a3505050565b6001600160a01b0383163b156104fd57604051630a85bd0160e11b81526001600160a01b0384169063150b7a029061091e90339088908790879060040161120e565b6020604051808303816000875af1925050508015610959575060408051601f3d908101601f191682019092526109569181019061124b565b60015b6109c2573d808015610987576040519150601f19603f3d011682016040523d82523d6000602084013e61098c565b606091505b5080516000036109ba57604051633250574960e11b81526001600160a01b038516600482015260240161044c565b805181602001fd5b6001600160e01b03198116630a85bd0160e11b146109fe57604051633250574960e11b81526001600160a01b038516600482015260240161044c565b5050505050565b60606009805461034e9061105e565b60606000610a2183610c11565b600101905060008167ffffffffffffffff811115610a4157610a41610e83565b6040519080825280601f01601f191660200182016040528015610a6b576020820181803683370190505b5090508181016020015b600019016f181899199a1a9b1b9c1cb0b131b232b360811b600a86061a8153600a8504945084610a7557509392505050565b8080610abb57506001600160a01b03821615155b15610b7d576000610acb84610699565b90506001600160a01b03831615801590610af75750826001600160a01b0316816001600160a01b031614155b8015610b0a5750610b08818461061b565b155b15610b335760405163a9fbf51f60e01b81526001600160a01b038416600482015260240161044c565b8115610b7b5783856001600160a01b0316826001600160a01b03167f8c5be1e5ebec7d5bd14f71427d1e84f3dd0314c0f7b2291e5b200ac8c7c3b92560405160405180910390a45b505b5050600090815260046020526040902080546001600160a01b0319166001600160a01b0392909216919091179055565b610bb8838383610ce9565b61052a576001600160a01b038316610be657604051637e27328960e01b81526004810182905260240161044c565b60405163177e802f60e01b81526001600160a01b03831660048201526024810182905260440161044c565b60008072184f03e93ff9f4daa797ed6e38ed64bf6a1f0160401b8310610c505772184f03e93ff9f4daa797ed6e38ed64bf6a1f0160401b830492506040015b6d04ee2d6d415b85acef81000000008310610c7c576d04ee2d6d415b85acef8100000000830492506020015b662386f26fc100008310610c9a57662386f26fc10000830492506010015b6305f5e1008310610cb2576305f5e100830492506008015b6127108310610cc657612710830492506004015b60648310610cd8576064830492506002015b600a83106103395760010192915050565b60006001600160a01b03831615801590610d475750826001600160a01b0316846001600160a01b03161480610d235750610d23848461061b565b80610d4757506000828152600460205260409020546001600160a01b038481169116145b949350505050565b6001600160e01b031981168114610d6557600080fd5b50565b600060208284031215610d7a57600080fd5b813561061481610d4f565b60005b83811015610da0578181015183820152602001610d88565b50506000910152565b60008151808452610dc1816020860160208601610d85565b601f01601f19169290920160200192915050565b6020815260006106146020830184610da9565b600060208284031215610dfa57600080fd5b5035919050565b80356001600160a01b0381168114610e1857600080fd5b919050565b60008060408385031215610e3057600080fd5b610e3983610e01565b946020939093013593505050565b600080600060608486031215610e5c57600080fd5b610e6584610e01565b9250610e7360208501610e01565b9150604084013590509250925092565b634e487b7160e01b600052604160045260246000fd5b600067ffffffffffffffff80841115610eb457610eb4610e83565b604051601f8501601f19908116603f01168101908282118183101715610edc57610edc610e83565b81604052809350858152868686011115610ef557600080fd5b858560208301376000602087830101525050509392505050565b600060208284031215610f2157600080fd5b813567ffffffffffffffff811115610f3857600080fd5b8201601f81018413610f4957600080fd5b610d4784823560208401610e99565b600060208284031215610f6a57600080fd5b61061482610e01565b60008060408385031215610f8657600080fd5b610f8f83610e01565b915060208301358015158114610fa457600080fd5b809150509250929050565b60008060008060808587031215610fc557600080fd5b610fce85610e01565b9350610fdc60208601610e01565b925060408501359150606085013567ffffffffffffffff811115610fff57600080fd5b8501601f8101871361101057600080fd5b61101f87823560208401610e99565b91505092959194509250565b6000806040838503121561103e57600080fd5b61104783610e01565b915061105560208401610e01565b90509250929050565b600181811c9082168061107257607f821691505b60208210810361109257634e487b7160e01b600052602260045260246000fd5b50919050565b6000600182016110b857634e487b7160e01b600052601160045260246000fd5b5060010190565b601f82111561052a576000816000526020600020601f850160051c810160208610156110e85750805b601f850160051c820191505b81811015611107578281556001016110f4565b505050505050565b815167ffffffffffffffff81111561112957611129610e83565b61113d81611137845461105e565b846110bf565b602080601f831160018114611172576000841561115a5750858301515b600019600386901b1c1916600185901b178555611107565b600085815260208120601f198616915b828110156111a157888601518255948401946001909101908401611182565b50858210156111bf5787850151600019600388901b60f8161c191681555b5050505050600190811b01905550565b600083516111e1818460208801610d85565b8351908301906111f5818360208801610d85565b64173539b7b760d91b9101908152600501949350505050565b6001600160a01b038581168252841660208201526040810183905260806060820181905260009061124190830184610da9565b9695505050505050565b60006020828403121561125d57600080fd5b815161061481610d4f56fea26469706673582212204578e2c3be74e7385befa79b6827e15b39c09049edc8be8e3d917d716305a6a864736f6c63430008190033",
        "linkReferences": {}
    },
    "methodIdentifiers": {
        "approve(address,uint256)": "095ea7b3",
        "balanceOf(address)": "70a08231",
        "getApproved(uint256)": "081812fc",
        "isApprovedForAll(address,address)": "e985e9c5",
        "mint()": "1249c58b",
        "name()": "06fdde03",
        "ownerOf(uint256)": "6352211e",
        "safeTransferFrom(address,address,uint256)": "42842e0e",
        "safeTransferFrom(address,address,uint256,bytes)": "b88d4fde",
        "setApprovalForAll(address,bool)": "a22cb465",
        "setMintPrice(uint256)": "f4a0a528",
        "setNftUri(string)": "2a751e42",
        "supportsInterface(bytes4)": "01ffc9a7",
        "symbol()": "95d89b41",
        "tokenURI(uint256)": "c87b56dd",
        "transferFrom(address,address,uint256)": "23b872dd"
    },
    "id": 35
}